:1000000030050020111900000D1900000D19000025
:1000100000000000000000000000000000000000E0
:100020000000000000000000000000000D190000AA
:1000300000000000000000000D1900000D19000074
:100040000D1900000D1900000D1900000D19000018
:10005000D51100000D1900000D190000000000006E
:100060000D190000A5110000B5110000C511000018
:10007000190C00008511000095110000ED00000032
:100080000D1900000D1900000D19000010B5064CE7
:100090002378002B07D1054B002B02D0044800E049
:1000A00000BF0123237010BD1000002000000000DD
:1000B0001C1C0000084B10B5002B03D00749084852
:1000C00000E000BF07480368002B00D110BD064BBD
:1000D000002BFBD09847F9E7000000001400002037
:1000E0001C1C00001C1C00000000000070B52E4B02
:1000F0001C6823681D7EEDB2EA0705D5E27ED207B3
:1001000002D5A27ED20716D46B0708D50423226835
:100110001376E37E9B0702D5A37E9B073CD4AB07F7
:1001200008D5022322681376E37E5B0702D5A37EFF
:100130005B0735D470BD01221A762268537E5BB20C
:10014000002BFBDB61698B1C6361538B9BB20B80C3
:10015000238B013B9BB22383002B11D0637F002BA9
:10016000D2D02268537E5BB2002BFBDB137B0221D3
:100170000B4313732268537E5BB2002BFBDBC3E798
:10018000237F052BC0D10023237701332268937589
:100190002000A3689847B7E72000E3689847BEE7C8
:1001A000236920009847C5E7AC00002070B5AAB0CD
:1001B000204D01AC290020001F4B98470623E37215
:1001C000F9336360FD3B23760023A3752375E37544
:1001D0006375E3610122982162549439A16517493E
:1001E000A1672362992162549439E1651449E1675A
:1001F00063629A21625490392166124876316050C8
:10020000A3629B33E254903B63660F4A7933E2501A
:100210000E4E2200290030000D4B98473268022113
:1002200093681942FCD1136802210B4313602AB072
:1002300070BDC04600140042F9060000050004002D
:100240000500050005000A0005000B003000002035
:1002500035080000F8B504000D00124B1B788342EE
:1002600010D0002C13D0104F0022022138000F4E66
:10027000B0472A0003213800B0470D4B1D70094BD1
:100280001C70F8BD0A4B1B788B42EAD1F5E7064F8C
:100290002A0002213800054EB04700220321380011
:1002A000B047EAE72C00002030000020BD0B000022
:1002B0002D000020F8B504000D00124B1B7883427E
:1002C00010D0002C13D0104F0022002138000F4E08
:1002D000B0472A0001213800B0470D4B1D70094B73
:1002E0001C70F8BD0A4B1B788B42EAD1F5E7064F2C
:1002F0002A0000213800054EB047002201213800B5
:10030000B047EAE72E00002030000020BD0B0000BF
:100310002F00002010B5014B984710BDAD01000023
:10032000F0B583B001AC012767700026A670277076
:1003300021000920064DA847277021001B20A8474F
:100340002670667021000E20A84703B0F0BDC0469D
:1003500095120000034B802292009A6180221205C0
:100360009A6170470044004110B5024B9847024B18
:10037000984710BD210300005503000070477047E7
:1003800070B582B00023274C01A82749E25CC25413
:10039000CA5C6D46EA540133032BF7D100220023D7
:1003A00001AD04E00133DBB21A00012B0EDC69461B
:1003B000885C511C6C46645CA042F3D96E46B45410
:1003C0007054A85C6C5CAC546854EBE700220023CA
:1003D00001AD03E00133DBB21A1E0EDC6946885C16
:1003E000511C6C46645CA042F4D96E46B4547054FF
:1003F000A85C6C5CAC546854ECE701220B4B1A709F
:10040000002301AC0A480B491A5DC2546A469A5C43
:10041000CA540133032BF7D10022044B1A7002B0E7
:1004200070BDC0462001002028010020A800002047
:10043000240100201C01002010B58EB001AA002369
:100440000021137093711381002050709172D1724A
:100450001173917351731174536193611177136226
:100460005362138553859385C023DB009380042357
:100470009370FF212533D154074C08492000084BC5
:1004800098472268D37B5BB2002BFBDB13880221E9
:100490000B4313800EB010BDB000002000180042C6
:1004A0004D0C000010B50122C82109060148024B7D
:1004B000984710BD004400419918000030B583B042
:1004C00001AC012363700022A270237021001B2065
:1004D000074DA84721001F20A84721001E20A8473C
:1004E000044B9847C8221206034B9A6103B030BDF3
:1004F00095120000A50400000044004170B5054DB0
:10050000002205492800054CA04702220449280082
:10051000A04770BDB00000207D0300007D0E0000EC
:100520007F030000F8B5CE46474680B5134C2068DF
:10053000134B99469847134B98461B5C1F26334034
:1005400001252A009A40104F3A60637E012213432E
:10055000637623685D731800C84743461B5C1E40E2
:10056000B5403D60637E10221343637623681022FA
:100570005A730CBC90469946F8BDC046B0000020A6
:10058000290C00007C1B000000E100E0034B1B2253
:100590001A7004325A70013A9A7070472001002094
:1005A000024BFF221A705A709A707047280100207F
:1005B00010B5034B9847034B9847034B984710BD22
:1005C0008D050000A10500008103000010B5044B5B
:1005D0009847044B9847044B9847044B984710BDE5
:1005E00039040000BD040000B1050000FD04000056
:1005F00010B596210020054B984796210020044B0A
:100600009847FA20C000034B984710BD55020000E0
:10061000B502000069120000044A137802210B435E
:10062000137053785BB2002BFBDB7047001800405F
:1006300000B583B0124A936940210B43936101A92D
:1006400000230B7005200F4B984705200E4B984751
:100650000E4A137801210B43137053785BB2002BC1
:10066000FBDB0B4B19004031002204C39942FCD143
:100670001022084B1A60084B984703B000BDC046D3
:100680000004004071170000E5160000001800404B
:10069000CC00002000E100E01906000000207047B7
:1006A00030B504001720032900D930BD114DAA42EE
:1006B000FBD82068002B10D0802464028C40036B90
:1006C0001C42FCD1802424038C4083681C42FCD152
:1006D0001C3189000A500020E7E7802464008C4028
:1006E00083681C42FCD11031890041184A60002007
:1006F000DBE7C046FFFFFF00002303604C4A426077
:100700008372C372037343720372C36103624362F1
:100710008362037543758375C375037643760374EB
:1007200043748374C3742C22835401328354013282
:100730008354013283540132835401328354013291
:100740008354013283540132835401328354013281
:100750008354013283540132835401328354013271
:100760008354013283540132835401328354013261
:100770008354013283540132835401328354013251
:100780008354013283540132835401328354013241
:100790008354013283540132835401328354013231
:1007A0008354013283540132835401328354013221
:1007B0008354013283540132835401328354013211
:1007C0008354013283540132835401328354013201
:1007D00083540132835441328354836583670132E9
:1007E0008354C365C3670132835403661A3A835046
:1007F0001B3283544366173A8350183283548366FE
:10080000143A835015328354C366113A835012321E
:10081000835403670E3A83500F32835443670B3A75
:10082000835001210C328154013283547047C046F9
:10083000FFFFFF00F0B5DE4657464E464546E0B5A1
:100840008DB006000C0015000800CD4B9847030042
:10085000CC490A6A202002430A62226804389207BF
:1008600006D50DB03CBC90469946A246AB46F0BDBD
:10087000226801271740F4D1C34A053829689142FC
:10088000EFD869689142ECD8E969914200D98BE1CF
:10089000296A914200D989E1696A914200D987E1C8
:1008A000A96A914200D985E12A7C013A504250411F
:1008B000020601926A7C012A31D0AA7C012A34D036
:1008C000EA7C012A37D0A122AA5C002A04D0802227
:1008D00012010199114301912A7A511E8A41920015
:1008E00003926A7A012A2CD03522AA5C032A00D905
:1008F00062E12C21695C0F2900D95DE1287B04901D
:10090000E87A05902D208246AA440020029784466A
:1009100006960E00A0465446A946079347E080225B
:100920009204019911430191C7E78022D2040199F1
:1009300011430191C4E780221205019911430191ED
:10094000C1E7039911430391CEE79202C0252D011F
:100950002A4032430D7903262E40324355462A431E
:100960004E797601602535402A438D792D02C026C7
:10097000B60035402A43CD792D03E026F6013540F7
:100980002A43104303431F4308AB624608201B1849
:100990009F50042A28D08A7C032A00D90CE14E7A81
:1009A0000A3404239A46D4440F2E00D904E13606B3
:1009B000F0231B051E40210025782D04FF231B0476
:1009C0001D40AA4663788020002B00D102988F78C2
:1009D0000823002F00D1029BCF78BB4610275D462D
:1009E000002DB2D1029FB0E7069E44464D46079BBC
:1009F0004846503049464131002280277F02BC469C
:100A00000127B9460227FF37BA461F001300A04648
:100A10003C0007E0574697403B430132013002312A
:100A2000082A0ED00778002F02D0674697403B4334
:100A30000F78002FF1D0022FECD04F4697403B4368
:100A4000EBE722004446984613006A7E12013021EB
:100A50001140287E072202401143002280204002DC
:100A60000F0002E00132042A07D0A918097D0029ED
:100A7000F8D0010091400F43F4E7B946321D300031
:100A80003430002102C29042FCD100227263B26372
:100A90009B003E4A9E503460A023EA5C643BF254C3
:100AA00009A9AB7A0B701120394B98471120394BAB
:100AB00098472F0098372E00583678239A46AA4434
:100AC000773B9B46230054469A4603E001370436A1
:100AD000B44214D03B78002BF8D008AB5A469A7039
:100AE000002308AAD37013002022B21812781A70BB
:100AF0005A465A7030781900274B9847E6E7544613
:100B0000049B1B03059A12021343019A13432360AB
:100B10000422A3681A42FCD1FF2323710422A36894
:100B20001A42FCD16B461B7B63710A9BE3600B9BF3
:100B300023614346A361194AA3681342FCD14B4683
:100B4000E3631022A3681A42FCD12B686363144A42
:100B5000A3681342FCD16B6823641C350021114843
:100B600002008A40A3681A42FCD104CD0B00103366
:100B70009B00E3185A6001310429F1D1002070E68E
:100B80009D06000000040040FFFFFF000C01002054
:100B900071170000E516000069180000400002000F
:100BA000800004000001080017205AE6172058E6CC
:100BB000172056E6172054E6172052E610B53C23BE
:100BC000C35C014CA04710BDA1060000F0B5C646AD
:100BD00000B580000E4BC7583B68DE6ABB6B7A6B72
:100BE00013401E4000240B4B984602E00434302C86
:100BF0000AD04346E5583542F8D03B195B683800C7
:100C000098473B68DD62F1E704BC9046F0BDC04602
:100C10000C010020801B000010B50020014B9847FC
:100C200010BDC046CD0B0000064B984208D0064AC6
:100C30000023904201D0180070470133DBB2FAE77D
:100C40000023FBE700180042001C0042F0B585B00D
:100C500004000D0016000800824B9847070003AB04
:100C600012221A705A7002AB2E321A8040325A8009
:100C70000023A360E36023616361237663768200CF
:100C8000794BD4502560B378082B06D023712B887C
:100C90000520DB0705D505B0F0BD1720FA07FAD40B
:100CA000F4E7EB7B1730DB06F5D42B889B07F2D4F7
:100CB000337C002B00D07AE0337F002B00D082E021
:100CC0006A49086A7A0002ABD35A03430B62B378CD
:100CD000082B00D187E033786A46137003ABDF5DE1
:100CE00069463800624B98473800624B9847318913
:100CF000B3880B43B178B279114319437378002B51
:100D000002D080231B0119432268D37B5BB2002BE6
:100D1000FBDB2980717B4B1E99418900B37B002B43
:100D200001D0012319432268D37B5BB2002BFBDB8C
:100D3000FF232B71002905D02268D37B5BB2002BE7
:100D4000FBDB6971B17AF37A002B01D010231943D0
:100D5000337B002B01D0202319432268D37B5BB265
:100D6000002BFBDBA9712268D37B5BB2002BFBDB82
:100D70002379042B3FD0082B5ED01720002B00D006
:100D800089E7D37B5BB2002BFBDB338D2B822268A0
:100D9000D37B5BB2002BFBDB738D2B832268D37B71
:100DA0005BB2002BFBDBB38D6B83002073E701A9E3
:100DB00001238B700022CA70327E0A704B70307D26
:100DC0002D4B984778E701A901238B700022CA7048
:100DD0002432B21812780A704B701F33F318187847
:100DE000254B98476CE7086A7A1C520002ABD35A2D
:100DF00003430B626FE7D37B5BB2002BFBDB282343
:100E0000F35C2B742268D37B5BB2002BFBDB2923C2
:100E1000F35C2B752268D37B5BB2002BFBDB2A23B0
:100E2000F35C2B762268D37B5BB2002BFBDB2B239E
:100E3000F35C6B7600202EE7D37B5BB2002BFBDBF1
:100E4000B36A2B612268D37B5BB2002BFBDBF36AB6
:100E5000AB612268D37B5BB2002BFBDB336BEB61B6
:100E6000002018E7290C00001001002000040040B9
:100E700071170000E516000069180000931C9B0024
:100E80001950022A09D0032A0CD0012393401A00DA
:100E9000037E1343037600207047037E1022134322
:100EA0000376F8E7037E202213430376F3E700007E
:100EB000F8B5DE4657464E464546E0B58000994BAC
:100EC000C45823689B7B227E617E11401940CB066B
:100ED00000D486E0944B1B78002B7CD1934B1B787D
:100EE000934A1278DBB2934211D092480378DBB276
:100EF0005A1CD2B20270904AD25CD2B20123934003
:100F00008E4A1360894A13780133DBB21370874B22
:100F10001B78874A1278DBB293425FD2834D2B78DD
:100F2000013B8748C25CD2B2864B1A702B78DBB289
:100F3000C35CDBB2844803709A4236D12878C0B2D1
:100F40007B4B1B78013B98423CDC7A4E7A4B9846AF
:100F500028007B4D7B4B9C467B4F8246744B9946C9
:100F60003378DBB25A1CD2B232704246D25CD2B273
:100F700001239340714A13600378DBB2EA5CD2B27A
:100F800063461A7003780133DBB20370EB5CDBB2AB
:100F90003B709A4209D152461278D2B293464A46E1
:100FA0001278013A9345DBDD1A00FF2B0CD067481D
:100FB0000278002AFCD1664A1370624B1A78654B9E
:100FC0001A700BE01300F0E760480378002BFCD1A7
:100FD000604B1A7002E00022534B1A7010232268F3
:100FE0009373CB0700D48DE05B4A13780133DBB2F7
:100FF00013701378DBB2022B05D90122574B1A70FC
:101000000022554B1A70C8221206554B1A60554BD8
:101010001B78002B59D0544B1B78002B18D0002282
:10102000514B1A70514B1B78002B1DD12068504B2F
:101030009847504B1B5C1F221A40012393404E4A95
:101040001360637E10221343637610232268537368
:101050000022374B1A700023484A90463448944681
:10106000374F474E344D22E02068414B9847414B63
:101070001B5C1F221A40012393403F4A1360637E8A
:1010800010221343637610232268537301332268BE
:1010900093730022354B1A70C8E76146895CC9B268
:1010A000B954B15CC9B2A9540133032B0AD01A0058
:1010B0004146C95CC9B2FF29EFD001780131C9B2FC
:1010C0000170EAE70022274B1A700023174A1370B9
:1010D000184A13701A4B1978C9B2FF2918D0012287
:1010E000224B1A70194A1378002BFCD1184B197037
:1010F000164A1378002BFCD10022164B1A70236875
:1011000001329A733CBC90469946A246AB46F8BD64
:101110000122154B1A700F3223681A73637E9343B2
:101120006376E5E710010020010000207300002035
:10113000000000207B0000207800002018440041BF
:101140007000002075000020740000200F1800427D
:101150001818004210180042AA000020A900002020
:1011600014440041AB0000207600002077000020EE
:10117000290C0000B01B000000E100E01C01002071
:101180002401002010B50020014B984710BDC04637
:10119000B10E000010B50120014B984710BDC046AC
:1011A000B10E000010B5024B1B680020984710BD1F
:1011B0007C00002010B5024B5B680120984710BDF1
:1011C0007C00002010B5024B9B680220984710BDA0
:1011D0007C00002070B50022104B1A7000231049CB
:1011E0001F25104E0D4C0AE00D4908E0237801330D
:1011F000DBB223700F2B10D800211F2BF4D928004D
:1012000018400122824008691042EFD00A619B0019
:101210009B59002BEAD09847E8E770BD18010020E1
:1012200000180040CC00002070B50020084B984703
:101230000500084CFA218900A047074B18600749B0
:101240002800A047064B18600522064B1A6070BDA7
:10125000591600001D1A00000400002040420F0033
:101260000800002010E000E030B5084B1C68084A78
:10127000002580214902013807D3002CFBD054609F
:10128000956013680B42FCD0F5E730BD04000020E8
:1012900010E000E000B583B001AB80221A700A783C
:1012A0005A704A789A708A78DA701900014B984718
:1012B00003B000BD69180000704700000C4B1B68AC
:1012C000002B06D1EFF31083002B07D00022094B2F
:1012D0001A70074A136801331360704772B6BFF380
:1012E0005F8F0022044B1A700132024B1A70F0E734
:1012F000880000208C0000200C000020084B1A6899
:10130000013A1A601B68002B09D1064B1B78002B91
:1013100005D00122044B1A70BFF35F8F62B670478D
:10132000880000208C0000200C00002010B5082848
:1013300003D880001B4B1B589F46002030E01A4BFF
:1013400018692DE0194B1B6A9B059B0F1848D84064
:1013500026E0154B586923E0134B1B6800209B07C0
:101360001ED512491022CB681A42FCD00E4B1B68C6
:101370005B0701D40F4813E000200F4B98470A4B3E
:101380009B681B041B0C58430AE05023074AD35C9C
:1013900000205B0704D5044BD86801E080200002E0
:1013A00010BDC046B41B00009000002000080040A3
:1013B00000127A00006CDC028D17000070B50C4939
:1013C0000B6A04788578407801221040800140261D
:1013D000B34303432A40D2018020834313430322B3
:1013E000224012020348034013430B6270BDC04603
:1013F00000080040FFFCFFFF082803D88000254BB1
:101400001B589F46172044E0234A136A02210B43CE
:10141000136200203DE0204A936902210B4393614F
:10142000002036E01C4A138A02210B43138200205D
:101430002FE0194A938A02210B439382002028E06F
:1014400016490B68022213430B60134B9A84190050
:101450000E32CB681A42FCD0104A91680E4BD9620A
:1014600052689A6200229A8419001032CB681A429C
:10147000FCD00A4B1B689BB2074A9384002008E00B
:10148000054944228B5C022003438B54002000E07A
:1014900000207047D81B000000080040900000208A
:1014A00030B585B0C222D2001A4B9A601A4A5368EE
:1014B0001E218B43536001236A4613700024174D8D
:1014C000E0B26946A8470134182CF9D103A80024DA
:1014D0004470012585700470114B98470620114B0C
:1014E0009847114B9847114B1C725C729C72DC72CE
:1014F00001956B465C7006236A4613701472547231
:10150000694600200A4B984700200A4B984705B0CF
:1015100030BDC04600080040004000417117000087
:10152000BD130000F913000039150000000400404D
:101530005D15000015160000064A936908210B434B
:1015400093610122044B1A7019000B781342FCD1ED
:101550007047C04600040040000C004070B5060013
:1015600004000D782D0205434B78002B02D0802318
:10157000DB021D434B7A002B02D080231B031D434B
:101580004868012810D9431E184234D1022830D9A6
:101590000223002201325B009842FBD81202324340
:1015A000140080235B031D430B7A002B02D08023A1
:1015B0009B031D43134A53785BB2002BFBDB124B9A
:1015C0009847124B1E700F4A53785BB2002BFBDB1F
:1015D0000C4B9C601A0053785BB2002BFBDB094A72
:1015E0005368802149020B401D435560084B9847C2
:1015F00070BD0022D2E70402344380239B021D43C6
:10160000D2E7C046000C0040BD120000080C0040AC
:10161000FD12000010B504000B4A53785BB2002B9A
:10162000FBDB0A4B98470A4B1C70074A53785BB2A6
:10163000002BFBDB044A516880235B020B435360A1
:10164000044B984710BDC046000C0040BD1200007E
:10165000040C0040FD12000070B504001A4A5378D3
:101660005BB2002BFBDB194B9847194B1C70164AD9
:1016700053785BB2002BFBDB134E7068C004C00EC6
:10168000144B98470500124B1C707668F602F60F53
:10169000114B1C700C4A53785BB2002BFBDB0A4BDE
:1016A0009C682402240C0D4B9847002E07D1012C76
:1016B00007D9210028000A4B9847050001E00134B2
:1016C000E540280070BDC046000C0040BD1200007F
:1016D000040C00402D130000080C0040FD12000017
:1016E0001D1A000010B50400064B9847064B1C70ED
:1016F000064A53888021C9010B435380044B984705
:1017000010BDC046BD120000020C0040000C00409D
:10171000FD12000010B504000F4B98470F4B1C70D2
:101720000F4A53881B05180F53880E490B405380EE
:1017300053880D490B40538011008022D2014B8801
:101740001342FCD106494A8803020648024013436B
:101750004B80064B984710BDBD120000020C0040A4
:10176000000C0040FFF0FFFFFFBFFFFFFD12000075
:1017700010B50C7824020443024B9847A4B2024BE4
:101780005C8010BD15170000000C004010B504006F
:10179000064B9847064B1C70064B5C882405240FAB
:1017A000054B98472000054B984710BDBD1200001F
:1017B000020C0040000C0040FD1200005916000011
:1017C00030B5D378002B35D11378802B29D01B0668
:1017D00080246402234354780225AC4306D19478D4
:1017E000002C20D18024A402234341605478013C82
:1017F000012C1CD90D042D0CA024E4052C431C4302
:1018000084620D0CD02424062C431C438462D478BB
:10181000002C22D15B031CD59378012B1ED0416193
:1018200017E00023D7E7C024E4022343DDE70D4C93
:101830002340DFE741600C04240CA023DB05234395
:1018400083620C0CD0231B0623438362D378002BC6
:1018500003D15378013B012B02D930BD8161F8E7F8
:101860008160FAE7FFFFFBFF10B50A00C109002302
:10187000002904D14309DB0105498C4663441F2438
:101880002040012181401800024B984710BDC046FE
:1018900000440041C1170000F0B5C64600B5002362
:1018A00001264024A046A44609E0C51840352C78FE
:1018B00067463C43E4B22C700133202B0CD00C0063
:1018C000DC402642F8D0012AEFD0C41840342578F5
:1018D0004746BD432570EFE704BC9046F0BD704716
:1018E00010B5054B9847054B9847054B9847054B56
:1018F0009847054B984710BDA1140000B91200008D
:10190000DF18000031060000DF180000FEE70000CD
:1019100010B5264A264B9A4211D01A00254B9A42FE
:101920000DD2254A03339B1A9B0801339B000022EA
:101930001F481E498C58845004329A42FAD11F4ADB
:101940001F4B9A420AD2D3431D495B1803218B4394
:1019500004339B18002102C29342FCD1194AFF2193
:10196000194B8B439360FD3990235B00174AD1508C
:10197000174B9A7B2E318A4320210A439A739A7B14
:101980000C218A4308210A439A739A7B03218A43D4
:1019900002210A439A730F4A536880210B43536014
:1019A0000D4B98470D4B9847FEE7C0461C1C0000A6
:1019B0000000002010000020040000201000002083
:1019C0002C01002000ED00E000000000007000414C
:1019D0000048004100400041351B0000E1190000B3
:1019E00010B5074B9847074B9847074B9847074B4D
:1019F0009847074B9847074B9847074CA047FDE788
:101A0000E11800006903000029120000CD05000064
:101A10001503000025050000F10500000022430821
:101A20008B4274D303098B425FD3030A8B4244D3A6
:101A3000030B8B4228D3030C8B420DD3FF220902E8
:101A400012BA030C8B4202D31212090265D0030BA7
:101A50008B4219D300E0090AC30B8B4201D3CB039D
:101A6000C01A5241830B8B4201D38B03C01A5241DF
:101A7000430B8B4201D34B03C01A5241030B8B42E1
:101A800001D30B03C01A5241C30A8B4201D3CB02CC
:101A9000C01A5241830A8B4201D38B02C01A5241B1
:101AA000430A8B4201D34B02C01A5241030A8B42B4
:101AB00001D30B02C01A5241CDD2C3098B4201D3CC
:101AC000CB01C01A524183098B4201D38B01C01A4A
:101AD000524143098B4201D34B01C01A52410309C1
:101AE0008B4201D30B01C01A5241C3088B4201D370
:101AF000CB00C01A524183088B4201D38B00C01A1D
:101B0000524143088B4201D34B00C01A5241411A43
:101B100000D20146524110467047FFE701B5002050
:101B200000F006F802BDC0460029F7D076E77047FE
:101B30007047C04670B500260C4D0D4C641BA410B8
:101B4000A64209D1002600F059F80A4D0A4C641B40
:101B5000A410A64205D170BDB300EB5898470136DA
:101B6000EEE7B300EB5898470136F2E7081C000097
:101B7000081C0000081C00000C1C00000D0E0000DA
:101B80000100000002000000040000000800000046
:101B90000010000000200000004000000080000055
:101BA0000000010000000200000004000000080026
:101BB0000D0E00003E1300003A1300003A1300001F
:101BC0009C1300009C1300005213000044130000FB
:101BD000581300008A1300002414000004140000AD
:101BE00004140000901400001614000032140000C9
:101BF000081400004014000080140000F8B5C0462E
:101C0000F8BC08BC9E467047B5000000F8B5C04659
:0C1C1000F8BC08BC9E4670478D00000028
:101C1C0003010000401F000008000000010000004C
:0400000300001911CF
:00000001FF
